:040000008031EF2834
:100008007E14803120007F08F7008B1A0B1DEB2827
:100018000B11F801F9017908803AF4008030740274
:10002800031D182805307802031860280A30F400E8
:100038007408F0007808853123258031043EA03EFD
:10004800860087011600013AF5001600F504031D25
:1000580051280A30F4007408F00078088531232507
:100068008031063EA03E860087011600013AF50061
:100078001600F504031D51280A30F4007408F00036
:100088007808853123258031083EA03E8600870107
:100098000130810741310318810A0130F807003027
:1000A800F93D7908803AF40080307402031D5E2817
:1000B80005307802031C1A28210029082306031D8D
:1000C800672828082206031D782824032504031D11
:1000D800782826032704031D7828A801A9012108E8
:1000E8008A0020080A008031210033082D06031DEC
:1000F8007F2832082C06031D94282E032F04031D85
:10010800942830033104031D9428B201B3010A3046
:10011800A03E86008701413F8A00403F0A008031A7
:1001280021003D083706031D9B283C083606031DA1
:10013800B02838033904031DB0283A033B04031DD3
:10014800B028BC01BD011430A03E86008701413FA4
:100158008A00403F0A008031210047084106031DFC
:10016800B72846084006031DCC2842034304031D54
:10017800CC2844034504031DCC28C601C7011E3002
:10018800A03E86008701413F8A00403F0A00803137
:10019800210051084B06031DD32850084A06031DA9
:1001A800E8284C034D04031DE8284E034F04031DA3
:1001B800E828D001D1012830A03E86008701413FC0
:1001C8008A00403F0A0080310630200095007708F9
:1001D800FF007E1009008031F128CF01D001A03046
:1001E800840000308500323085319225803180309E
:1001F80084008530850045308600003087000A304D
:10020800853198257E1020008431962CC7298531A8
:10021800A42581312000B8003808C4004408D03E25
:10022800C200FF3003180030C3004308A50042088D
:10023800A400853112258131C7298531A425813152
:100248002000B8003808C4004408D03EC200FF307F
:1002580003180030C3004308A5004208A4008531F4
:1002680034258131C72920004F0885318A258131FD
:100278002000BE01BF013F08803AB8008030380234
:10028800031D482905303E0203186B290A30200057
:10029800B8003808A0003E08853100258131063EA7
:1002A800A03E86008701010885318A258131013009
:1002B8002000BE070030BF3D3F08803AB8008030BC
:1002C8003802031D692905303E02031C4A29200013
:1002D800C001C1014108803AB80080303802031DCE
:1002E8007729053040020318C7290A302000B800D2
:1002F8003808A0004008853100258131023EA03E23
:1003080086008701403F2000A900413FAA008231B2
:100318005922813101302000C0070030C13D6E29CB
:100328008531A42581312000B8003808C40044086C
:10033800D03EC200FF3003180030C3008131DE21F7
:10034800813120002A08BA002908B9008531A4257E
:1003580081312000B8003808C4004408D03EBB00F2
:10036800FF3003180030BC004308A7004208A6006D
:100378003A08A9003908A8003C08AB003B08AA00C5
:100388008331E92381318531A42581312000B800EA
:100398003808BD0020003D08413A03190B29023AEC
:1003A80003193729073A03192129113A03199429FE
:1003B800C729C7292000B401B5013508803AAB0028
:1003C80080302B02031DEA29043034020318082A5E
:1003D8002000911EEC29230019082000AB003408E6
:1003E8002C3E860087012B0881000130B4070030BD
:1003F800B53D3508803AAB0080302B02031D062A34
:1004080004303402031CEC292000B001B101E830AB
:10041800B2000330B300B601B7013708803AAB0029
:1004280080302B02031D1A2A043036020318532A7F
:10043800200036082C3E860087010108D03EA00027
:10044800FF3003180030A1003308A3003208A200CF
:100458008431D024813120002008B0072108B13D23
:100468000A30A0000030A1003308A3003208A2001F
:1004780084314424813120002108B3002008B200CF
:100488000130B6070030B73D3708803AAB008030FE
:100498002B02031D512A04303602031C1C2A20009B
:1004A8003108AA003008A900080010302000B10067
:1004B8002730B200AF01B0013008803AAB0080307D
:1004C8002B02031D692A05302F020318BD2A2000BC
:1004D8003208A1003108A0002A08A3002908A200B8
:1004E80084314424823120002108AE002008AD0068
:1004F8002D08453E86008701010885318A2582310D
:1005080020002E08A1002D08A0003208A300310801
:10051800A2008431D024823120002009AB002109B7
:10052800AC00AB0A0319AC0A29082B07A9002A0852
:100538002C3DAA000A30A0000030A1003208A30018
:100548003108A20084314424823120002108B200FD
:100558002008B1000130AF070030B03D3008803AC4
:10056800AB0080302B02031DBB2A05302F02031C71
:100578006B2A323085318A2508002000AD01AE0192
:100588002E08803AAA0080302A02031DCD2A0530A1
:100598002D02031808000A302000AA002A08A0002B
:1005A8002D08853100258231043EA03E8600870152
:1005B80016000104031D232B0A302000AA002A0874
:1005C800A0002D08853100258231A03E86008701D4
:1005D80020002608C03F2708C13F0A30AA002A0881
:1005E800A0002D08853100258231023EA03E8600FC
:1005F800870120002908A1002808A000E830A200EF
:100608000330A3008431D024823120002008C03F69
:100618002108C13F0A30AA002A08A0002D08853108
:100628000025043EA03E860087010130C03F00300F
:10063800C13F01302000CF070030D03D0800013015
:100648002000AD070030AE3DC42A21009511951257
:100658001508F839023895000630200095000B116E
:100668008B168B17A501A601A501A6012608803ABD
:10067800A40080302402031D432B053025020318F3
:1006880008000A302000A4002408A00025088531AD
:1006980000258331043EA03E860087010030C03F1C
:1006A800C13F0A302000A4002408A0002508853195
:1006B80000258331083EA03E860087010030C03FF8
:1006C800C13F0A302000A4002408A0002508853175
:1006D80000258331023EA03E860087010030C03FDE
:1006E800C13F0A302000A4002408A0002508853155
:1006F80000258331063EA03E860087010030C03FBA
:10070800C13F01302000A5070030A63D3A2B20004C
:10071800AB01AC01AB01AC012C08803AA8008030D9
:100728002802031D992B05302B02031808000A30F4
:100738002000A8002808A0002B0885310025833157
:10074800043EA03E8600870116000104031DE32B2A
:100758000A302000A8002808A0002B0885310025B1
:100768008331A03E8600870120002408C03F250869
:10077800C13F0A30A8002808A0002B0885310025B1
:100788008331023EA03E8600870120002608C03F34
:100798002708C13F0A30A8002808A0002B08853187
:1007A8000025043EA03E860087010130C03F00308E
:1007B800C13F01302000CF070030D03D0800013094
:1007C8002000AB070030AC3D902B20002A032B04FF
:1007D800031D1B2C0A30AC002C08A000260885310C
:1007E80000258331023EA03E8600870120002908AB
:1007F800A1002808A000E830A2000330A30084313B
:10080800D024833120002008C03F2108C13F0A308E
:10081800AC002C08A0002608853100258331083E4D
:10082800A03E860087010030C03FC13F402C200019
:100838002A082B04031D402C0A30AC002C08A00009
:100848002608853100258331023EA03E86008701B7
:1008580020002808C03F2908C13F0A30AC002C08F6
:10086800A0002608853100258331083EA03E860079
:1008780087010030C03FC13F303085318A250800EC
:100888002000A601A11F4F2CA009A109A00A031945
:10089800A10AA601A60AA31F5A2CA209A309A20A03
:1008A8000319A30A0130A4002408A606A701A80179
:1008B800200821040319892CA501A50AA11B6E2C67
:1008C8000130A035A10D890B652C0130A400240846
:1008D800A507622C0130A735A80D890B6F2C2108BC
:1008E8002302031D792C20082202031C802C2008D7
:1008F800A2022108A33B27140130A136A00C890BC2
:10090800812C0130A502031D6E2C26080319912C99
:10091800A709A809A70A0319A80A2808A1002708EF
:10092800A000080085319E2584318431EC2484316F
:1009380068302000A4000530A5006430A60000300F
:10094800A70083318B2384315C302000A60005305A
:10095800A7000130A8000030A9008231C1228431EB
:1009680050302000A6000530A7000230A800003053
:10097800A9008231C122843174302000A4000530DE
:10098800A5000A30A6000030A70083318B238431EC
:1009980081310A218031EF282000A401A501201C03
:1009A800D92C2208A4072308A53D0130A235A30DA0
:1009B800890BDA2C0130A136A00C890BDF2C20081A
:1009C8002104031DD32C2508A1002408A000080039
:1009D80021008F0123008F0122008F0120008F0149
:1009E80021008D0123008D0122008D0120008D0141
:1009F8000D100D118D1208002000A300A201231C68
:100A0800092D2008A1002108A2070310A00D03103A
:100A1800A30C2308031D032D220808000A30200018
:100A2800A6002608A000240885310025063EA03E21
:100A3800860087010130C03F0030C13F0800F20046
:100A4800F301721C2B2D7008F1007108F3070310D5
:100A5800F00D0310F20C7208031D252D7308080011
:100A68000A302000A6002608A000240885310025A9
:100A7800063EA03E860087010030C03FC13F080007
:100A880023009F111E110C309B001E129D179E16ED
:100A98001D16210091120800031020008D1E03145A
:100AA800031C592D20008D16080020008D12080007
:100AB800031020000D1D0314031C652D20000D15C7
:100AC800080020000D110800031020000D1C03145D
:100AD800031C712D20000D14080020000D100800C3
:100AE800031020008D1C0314031C7D2D20008D1481
:100AF800080020008D10080000340134023403344B
:100B08000434053406340734083409342000A000BE
:100B1800111E8C2D200823009A0008006400800113
:100B28000131890B932D0034FE0012001E00FE0BCC
:100B3800992D0034833129238531853144250800D6
:0C0B48002000911EA42D230019080800B5
:020000040001F9
:04000E00E2C9FFDC68
:00000001FF
